{
  "address": "0x5FbDB2315678afecb367f032d93F642f64180aa3",
  "abi": [
    {
      "inputs": [
        {
          "internalType": "address",
          "name": "",
          "type": "address"
        }
      ],
      "name": "contractToWallet",
      "outputs": [
        {
          "internalType": "address",
          "name": "",
          "type": "address"
        }
      ],
      "stateMutability": "view",
      "type": "function"
    },
    {
      "inputs": [
        {
          "internalType": "string",
          "name": "title",
          "type": "string"
        },
        {
          "internalType": "string",
          "name": "description",
          "type": "string"
        },
        {
          "internalType": "string",
          "name": "imageURL",
          "type": "string"
        },
        {
          "internalType": "uint256",
          "name": "money",
          "type": "uint256"
        },
        {
          "internalType": "address",
          "name": "senderAddress",
          "type": "address"
        },
        {
          "internalType": "string",
          "name": "hashData",
          "type": "string"
        },
        {
          "internalType": "uint256",
          "name": "royalty",
          "type": "uint256"
        }
      ],
      "name": "createPhotographContract",
      "outputs": [
        {
          "internalType": "address",
          "name": "",
          "type": "address"
        }
      ],
      "stateMutability": "nonpayable",
      "type": "function"
    },
    {
      "inputs": [],
      "name": "getPhotographAddresses",
      "outputs": [
        {
          "internalType": "address[]",
          "name": "",
          "type": "address[]"
        }
      ],
      "stateMutability": "view",
      "type": "function"
    },
    {
      "inputs": [
        {
          "internalType": "uint256",
          "name": "",
          "type": "uint256"
        }
      ],
      "name": "hashdata",
      "outputs": [
        {
          "internalType": "string",
          "name": "",
          "type": "string"
        }
      ],
      "stateMutability": "view",
      "type": "function"
    },
    {
      "inputs": [],
      "name": "photograph",
      "outputs": [
        {
          "internalType": "contract Photograph",
          "name": "",
          "type": "address"
        }
      ],
      "stateMutability": "view",
      "type": "function"
    },
    {
      "inputs": [
        {
          "internalType": "uint256",
          "name": "",
          "type": "uint256"
        }
      ],
      "name": "simplePhotographArray",
      "outputs": [
        {
          "internalType": "contract Photograph",
          "name": "",
          "type": "address"
        }
      ],
      "stateMutability": "view",
      "type": "function"
    },
    {
      "inputs": [],
      "name": "viewHashData",
      "outputs": [
        {
          "internalType": "string[]",
          "name": "",
          "type": "string[]"
        }
      ],
      "stateMutability": "view",
      "type": "function"
    }
  ],
  "transactionHash": "0x89ed38bd8e7ecddd3b3ced23df82d9e8183b940aec4c0426dbe435b1b600884b",
  "args": [],
  "numDeployments": 1,
  "solcInputHash": "8118fac6ecc5b0bab395347a5b5663fe",
  "bytecode": "0x608060405234801561001057600080fd5b5061266a806100206000396000f3fe60806040523480156200001157600080fd5b5060043610620000885760003560e01c80632b6fee8a11620000635780632b6fee8a14620001075780639ec698fe1462000129578063ef454fa2146200015f578063f38ecf1414620001955762000088565b80630103b58f146200008d5780630191051714620000af5780631d8f131814620000d1575b600080fd5b62000097620001cb565b604051620000a69190620007bf565b60405180910390f35b620000b9620001f1565b604051620000c8919062000946565b60405180910390f35b620000ef6004803603810190620000e99190620009c3565b620002d4565b604051620000fe919062000a06565b60405180910390f35b6200011162000307565b60405162000120919062000af1565b60405180910390f35b62000147600480360381019062000141919062000ca1565b62000420565b60405162000156919062000a06565b60405180910390f35b6200017d600480360381019062000177919062000dd0565b62000631565b6040516200018c9190620007bf565b60405180910390f35b620001b36004803603810190620001ad919062000dd0565b62000671565b604051620001c2919062000e54565b60405180910390f35b600160009054906101000a900473ffffffffffffffffffffffffffffffffffffffff1681565b60606003805480602002602001604051908101604052809291908181526020016000905b82821015620002cb578382906000526020600020018054620002379062000ea7565b80601f0160208091040260200160405190810160405280929190818152602001828054620002659062000ea7565b8015620002b65780601f106200028a57610100808354040283529160200191620002b6565b820191906000526020600020905b8154815290600101906020018083116200029857829003601f168201915b50505050508152602001906001019062000215565b50505050905090565b60046020528060005260406000206000915054906101000a900473ffffffffffffffffffffffffffffffffffffffff1681565b6060600060028054905067ffffffffffffffff8111156200032d576200032c62000b1f565b5b6040519080825280602002602001820160405280156200035c5781602001602082028036833780820191505090505b50905060005b60028054905081101562000418576002818154811062000387576200038662000edc565b5b9060005260206000200160009054906101000a900473ffffffffffffffffffffffffffffffffffffffff16828281518110620003c857620003c762000edc565b5b602002602001019073ffffffffffffffffffffffffffffffffffffffff16908173ffffffffffffffffffffffffffffffffffffffff168152505080806200040f9062000f3a565b91505062000362565b508091505090565b6000878787878786604051620004369062000726565b620004479695949392919062000f98565b604051809103906000f08015801562000464573d6000803e3d6000fd5b50600160006101000a81548173ffffffffffffffffffffffffffffffffffffffff021916908373ffffffffffffffffffffffffffffffffffffffff1602179055506002600160009054906101000a900473ffffffffffffffffffffffffffffffffffffffff169080600181540180825580915050600190039060005260206000200160009091909190916101000a81548173ffffffffffffffffffffffffffffffffffffffff021916908373ffffffffffffffffffffffffffffffffffffffff160217905550600383908060018154018082558091505060019003906000526020600020016000909190919091509081620005609190620011e2565b508360046000600160009054906101000a900473ffffffffffffffffffffffffffffffffffffffff1673ffffffffffffffffffffffffffffffffffffffff1673ffffffffffffffffffffffffffffffffffffffff16815260200190815260200160002060006101000a81548173ffffffffffffffffffffffffffffffffffffffff021916908373ffffffffffffffffffffffffffffffffffffffff160217905550600160009054906101000a900473ffffffffffffffffffffffffffffffffffffffff169050979650505050505050565b600281815481106200064257600080fd5b906000526020600020016000915054906101000a900473ffffffffffffffffffffffffffffffffffffffff1681565b600381815481106200068257600080fd5b9060005260206000200160009150905080546200069f9062000ea7565b80601f0160208091040260200160405190810160405280929190818152602001828054620006cd9062000ea7565b80156200071e5780601f10620006f2576101008083540402835291602001916200071e565b820191906000526020600020905b8154815290600101906020018083116200070057829003601f168201915b505050505081565b61136b80620012ca83390190565b600073ffffffffffffffffffffffffffffffffffffffff82169050919050565b6000819050919050565b60006200077f62000779620007738462000734565b62000754565b62000734565b9050919050565b600062000793826200075e565b9050919050565b6000620007a78262000786565b9050919050565b620007b9816200079a565b82525050565b6000602082019050620007d66000830184620007ae565b92915050565b600081519050919050565b600082825260208201905092915050565b6000819050602082019050919050565b600081519050919050565b600082825260208201905092915050565b60005b838110156200084457808201518184015260208101905062000827565b60008484015250505050565b6000601f19601f8301169050919050565b60006200086e8262000808565b6200087a818562000813565b93506200088c81856020860162000824565b620008978162000850565b840191505092915050565b6000620008b0838362000861565b905092915050565b6000602082019050919050565b6000620008d282620007dc565b620008de8185620007e7565b935083602082028501620008f285620007f8565b8060005b85811015620009345784840389528151620009128582620008a2565b94506200091f83620008b8565b925060208a01995050600181019050620008f6565b50829750879550505050505092915050565b60006020820190508181036000830152620009628184620008c5565b905092915050565b6000604051905090565b600080fd5b600080fd5b60006200098b8262000734565b9050919050565b6200099d816200097e565b8114620009a957600080fd5b50565b600081359050620009bd8162000992565b92915050565b600060208284031215620009dc57620009db62000974565b5b6000620009ec84828501620009ac565b91505092915050565b62000a00816200097e565b82525050565b600060208201905062000a1d6000830184620009f5565b92915050565b600081519050919050565b600082825260208201905092915050565b6000819050602082019050919050565b62000a5a816200097e565b82525050565b600062000a6e838362000a4f565b60208301905092915050565b6000602082019050919050565b600062000a948262000a23565b62000aa0818562000a2e565b935062000aad8362000a3f565b8060005b8381101562000ae457815162000ac8888262000a60565b975062000ad58362000a7a565b92505060018101905062000ab1565b5085935050505092915050565b6000602082019050818103600083015262000b0d818462000a87565b905092915050565b600080fd5b600080fd5b7f4e487b7100000000000000000000000000000000000000000000000000000000600052604160045260246000fd5b62000b598262000850565b810181811067ffffffffffffffff8211171562000b7b5762000b7a62000b1f565b5b80604052505050565b600062000b906200096a565b905062000b9e828262000b4e565b919050565b600067ffffffffffffffff82111562000bc15762000bc062000b1f565b5b62000bcc8262000850565b9050602081019050919050565b82818337600083830152505050565b600062000bff62000bf98462000ba3565b62000b84565b90508281526020810184848401111562000c1e5762000c1d62000b1a565b5b62000c2b84828562000bd9565b509392505050565b600082601f83011262000c4b5762000c4a62000b15565b5b813562000c5d84826020860162000be8565b91505092915050565b6000819050919050565b62000c7b8162000c66565b811462000c8757600080fd5b50565b60008135905062000c9b8162000c70565b92915050565b600080600080600080600060e0888a03121562000cc35762000cc262000974565b5b600088013567ffffffffffffffff81111562000ce45762000ce362000979565b5b62000cf28a828b0162000c33565b975050602088013567ffffffffffffffff81111562000d165762000d1562000979565b5b62000d248a828b0162000c33565b965050604088013567ffffffffffffffff81111562000d485762000d4762000979565b5b62000d568a828b0162000c33565b955050606062000d698a828b0162000c8a565b945050608062000d7c8a828b01620009ac565b93505060a088013567ffffffffffffffff81111562000da05762000d9f62000979565b5b62000dae8a828b0162000c33565b92505060c062000dc18a828b0162000c8a565b91505092959891949750929550565b60006020828403121562000de95762000de862000974565b5b600062000df98482850162000c8a565b91505092915050565b600082825260208201905092915050565b600062000e208262000808565b62000e2c818562000e02565b935062000e3e81856020860162000824565b62000e498162000850565b840191505092915050565b6000602082019050818103600083015262000e70818462000e13565b905092915050565b7f4e487b7100000000000000000000000000000000000000000000000000000000600052602260045260246000fd5b6000600282049050600182168062000ec057607f821691505b60208210810362000ed65762000ed562000e78565b5b50919050565b7f4e487b7100000000000000000000000000000000000000000000000000000000600052603260045260246000fd5b7f4e487b7100000000000000000000000000000000000000000000000000000000600052601160045260246000fd5b600062000f478262000c66565b91507fffffffffffffffffffffffffffffffffffffffffffffffffffffffffffffffff820362000f7c5762000f7b62000f0b565b5b600182019050919050565b62000f928162000c66565b82525050565b600060c082019050818103600083015262000fb4818962000e13565b9050818103602083015262000fca818862000e13565b9050818103604083015262000fe0818762000e13565b905062000ff1606083018662000f87565b620010006080830185620009f5565b6200100f60a083018462000f87565b979650505050505050565b60008190508160005260206000209050919050565b60006020601f8301049050919050565b600082821b905092915050565b6000600883026200107e7fffffffffffffffffffffffffffffffffffffffffffffffffffffffffffffffff826200103f565b6200108a86836200103f565b95508019841693508086168417925050509392505050565b6000620010c3620010bd620010b78462000c66565b62000754565b62000c66565b9050919050565b6000819050919050565b620010df83620010a2565b620010f7620010ee82620010ca565b8484546200104c565b825550505050565b600090565b6200110e620010ff565b6200111b818484620010d4565b505050565b5b8181101562001143576200113760008262001104565b60018101905062001121565b5050565b601f82111562001192576200115c816200101a565b62001167846200102f565b8101602085101562001177578190505b6200118f62001186856200102f565b83018262001120565b50505b505050565b600082821c905092915050565b6000620011b76000198460080262001197565b1980831691505092915050565b6000620011d28383620011a4565b9150826002028217905092915050565b620011ed8262000808565b67ffffffffffffffff81111562001209576200120862000b1f565b5b62001215825462000ea7565b6200122282828562001147565b600060209050601f8311600181146200125a576000841562001245578287015190505b620012518582620011c4565b865550620012c1565b601f1984166200126a866200101a565b60005b8281101562001294578489015182556001820191506020850194506020810190506200126d565b86831015620012b45784890151620012b0601f891682620011a4565b8355505b6001600288020188555050505b50505050505056fe60806040523480156200001157600080fd5b506040516200136b3803806200136b833981810160405281019062000037919062000357565b856000908162000048919062000691565b5084600190816200005a919062000691565b5083600290816200006c919062000691565b5081600360006101000a81548173ffffffffffffffffffffffffffffffffffffffff021916908373ffffffffffffffffffffffffffffffffffffffff1602179055508260048190555081600560006101000a81548173ffffffffffffffffffffffffffffffffffffffff021916908373ffffffffffffffffffffffffffffffffffffffff1602179055506000600560146101000a81548160ff0219169083151502179055508060068190555050505050505062000778565b6000604051905090565b600080fd5b600080fd5b600080fd5b600080fd5b6000601f19601f8301169050919050565b7f4e487b7100000000000000000000000000000000000000000000000000000000600052604160045260246000fd5b6200018d8262000142565b810181811067ffffffffffffffff82111715620001af57620001ae62000153565b5b80604052505050565b6000620001c462000124565b9050620001d2828262000182565b919050565b600067ffffffffffffffff821115620001f557620001f462000153565b5b620002008262000142565b9050602081019050919050565b60005b838110156200022d57808201518184015260208101905062000210565b60008484015250505050565b6000620002506200024a84620001d7565b620001b8565b9050828152602081018484840111156200026f576200026e6200013d565b5b6200027c8482856200020d565b509392505050565b600082601f8301126200029c576200029b62000138565b5b8151620002ae84826020860162000239565b91505092915050565b6000819050919050565b620002cc81620002b7565b8114620002d857600080fd5b50565b600081519050620002ec81620002c1565b92915050565b600073ffffffffffffffffffffffffffffffffffffffff82169050919050565b60006200031f82620002f2565b9050919050565b620003318162000312565b81146200033d57600080fd5b50565b600081519050620003518162000326565b92915050565b60008060008060008060c087890312156200037757620003766200012e565b5b600087015167ffffffffffffffff81111562000398576200039762000133565b5b620003a689828a0162000284565b965050602087015167ffffffffffffffff811115620003ca57620003c962000133565b5b620003d889828a0162000284565b955050604087015167ffffffffffffffff811115620003fc57620003fb62000133565b5b6200040a89828a0162000284565b94505060606200041d89828a01620002db565b93505060806200043089828a0162000340565b92505060a06200044389828a01620002db565b9150509295509295509295565b600081519050919050565b7f4e487b7100000000000000000000000000000000000000000000000000000000600052602260045260246000fd5b60006002820490506001821680620004a357607f821691505b602082108103620004b957620004b86200045b565b5b50919050565b60008190508160005260206000209050919050565b60006020601f8301049050919050565b600082821b905092915050565b600060088302620005237fffffffffffffffffffffffffffffffffffffffffffffffffffffffffffffffff82620004e4565b6200052f8683620004e4565b95508019841693508086168417925050509392505050565b6000819050919050565b6000620005726200056c6200056684620002b7565b62000547565b620002b7565b9050919050565b6000819050919050565b6200058e8362000551565b620005a66200059d8262000579565b848454620004f1565b825550505050565b600090565b620005bd620005ae565b620005ca81848462000583565b505050565b5b81811015620005f257620005e6600082620005b3565b600181019050620005d0565b5050565b601f82111562000641576200060b81620004bf565b6200061684620004d4565b8101602085101562000626578190505b6200063e6200063585620004d4565b830182620005cf565b50505b505050565b600082821c905092915050565b6000620006666000198460080262000646565b1980831691505092915050565b600062000681838362000653565b9150826002028217905092915050565b6200069c8262000450565b67ffffffffffffffff811115620006b857620006b762000153565b5b620006c482546200048a565b620006d1828285620005f6565b600060209050601f831160018114620007095760008415620006f4578287015190505b62000700858262000673565b86555062000770565b601f1984166200071986620004bf565b60005b8281101562000743578489015182556001820191506020850194506020810190506200071c565b868310156200076357848901516200075f601f89168262000653565b8355505b6001600288020188555050505b505050505050565b610be380620007886000396000f3fe6080604052600436106100a75760003560e01c8063b2ec005e11610064578063b2ec005e146101be578063c403eb3c146101e9578063d421e2f814610214578063efa909791461021e578063f049979614610247578063ff3c1a8f14610272576100a7565b80631a092541146100ac5780634d47732a146100d7578063893d20e81461010257806391b7f5ed1461012d57806392065db31461015657806398d5fdca14610193575b600080fd5b3480156100b857600080fd5b506100c161029d565b6040516100ce9190610850565b60405180910390f35b3480156100e357600080fd5b506100ec61032f565b6040516100f9919061088b565b60405180910390f35b34801561010e57600080fd5b50610117610339565b60405161012491906108e7565b60405180910390f35b34801561013957600080fd5b50610154600480360381019061014f9190610933565b610363565b005b34801561016257600080fd5b5061017d6004803603810190610178919061098c565b610438565b60405161018a919061088b565b60405180910390f35b34801561019f57600080fd5b506101a8610450565b6040516101b5919061088b565b60405180910390f35b3480156101ca57600080fd5b506101d361045a565b6040516101e09190610850565b60405180910390f35b3480156101f557600080fd5b506101fe6104ec565b60405161020b91906109d4565b60405180910390f35b61021c610503565b005b34801561022a57600080fd5b5061024560048036038101906102409190610a1b565b610660565b005b34801561025357600080fd5b5061025c610704565b60405161026991906108e7565b60405180910390f35b34801561027e57600080fd5b5061028761072e565b6040516102949190610850565b60405180910390f35b6060600180546102ac90610a77565b80601f01602080910402602001604051908101604052809291908181526020018280546102d890610a77565b80156103255780601f106102fa57610100808354040283529160200191610325565b820191906000526020600020905b81548152906001019060200180831161030857829003601f168201915b5050505050905090565b6000600654905090565b6000600360009054906101000a900473ffffffffffffffffffffffffffffffffffffffff16905090565b600360009054906101000a900473ffffffffffffffffffffffffffffffffffffffff1673ffffffffffffffffffffffffffffffffffffffff163373ffffffffffffffffffffffffffffffffffffffff16146103ea576040517fe617db5b00000000000000000000000000000000000000000000000000000000815260040160405180910390fd5b8060048190555080600760003373ffffffffffffffffffffffffffffffffffffffff1673ffffffffffffffffffffffffffffffffffffffff1681526020019081526020016000208190555050565b60076020528060005260406000206000915090505481565b6000600454905090565b60606002805461046990610a77565b80601f016020809104026020016040519081016040528092919081815260200182805461049590610a77565b80156104e25780601f106104b7576101008083540402835291602001916104e2565b820191906000526020600020905b8154815290600101906020018083116104c557829003601f168201915b5050505050905090565b6000600560149054906101000a900460ff16905090565b600560009054906101000a900473ffffffffffffffffffffffffffffffffffffffff1673ffffffffffffffffffffffffffffffffffffffff166108fc606461054961032f565b346105549190610ad7565b61055e9190610b48565b9081150290604051600060405180830381858888f19350505050158015610589573d6000803e3d6000fd5b50600360009054906101000a900473ffffffffffffffffffffffffffffffffffffffff1673ffffffffffffffffffffffffffffffffffffffff166108fc60646105d061032f565b60646105dc9190610b79565b346105e79190610ad7565b6105f19190610b48565b9081150290604051600060405180830381858888f1935050505015801561061c573d6000803e3d6000fd5b5033600360006101000a81548173ffffffffffffffffffffffffffffffffffffffff021916908373ffffffffffffffffffffffffffffffffffffffff160217905550565b600360009054906101000a900473ffffffffffffffffffffffffffffffffffffffff1673ffffffffffffffffffffffffffffffffffffffff163373ffffffffffffffffffffffffffffffffffffffff16146106e7576040517fe617db5b00000000000000000000000000000000000000000000000000000000815260040160405180910390fd5b80600560146101000a81548160ff02191690831515021790555050565b6000600560009054906101000a900473ffffffffffffffffffffffffffffffffffffffff16905090565b60606000805461073d90610a77565b80601f016020809104026020016040519081016040528092919081815260200182805461076990610a77565b80156107b65780601f1061078b576101008083540402835291602001916107b6565b820191906000526020600020905b81548152906001019060200180831161079957829003601f168201915b5050505050905090565b600081519050919050565b600082825260208201905092915050565b60005b838110156107fa5780820151818401526020810190506107df565b60008484015250505050565b6000601f19601f8301169050919050565b6000610822826107c0565b61082c81856107cb565b935061083c8185602086016107dc565b61084581610806565b840191505092915050565b6000602082019050818103600083015261086a8184610817565b905092915050565b6000819050919050565b61088581610872565b82525050565b60006020820190506108a0600083018461087c565b92915050565b600073ffffffffffffffffffffffffffffffffffffffff82169050919050565b60006108d1826108a6565b9050919050565b6108e1816108c6565b82525050565b60006020820190506108fc60008301846108d8565b92915050565b600080fd5b61091081610872565b811461091b57600080fd5b50565b60008135905061092d81610907565b92915050565b60006020828403121561094957610948610902565b5b60006109578482850161091e565b91505092915050565b610969816108c6565b811461097457600080fd5b50565b60008135905061098681610960565b92915050565b6000602082840312156109a2576109a1610902565b5b60006109b084828501610977565b91505092915050565b60008115159050919050565b6109ce816109b9565b82525050565b60006020820190506109e960008301846109c5565b92915050565b6109f8816109b9565b8114610a0357600080fd5b50565b600081359050610a15816109ef565b92915050565b600060208284031215610a3157610a30610902565b5b6000610a3f84828501610a06565b91505092915050565b7f4e487b7100000000000000000000000000000000000000000000000000000000600052602260045260246000fd5b60006002820490506001821680610a8f57607f821691505b602082108103610aa257610aa1610a48565b5b50919050565b7f4e487b7100000000000000000000000000000000000000000000000000000000600052601160045260246000fd5b6000610ae282610872565b9150610aed83610872565b9250828202610afb81610872565b91508282048414831517610b1257610b11610aa8565b5b5092915050565b7f4e487b7100000000000000000000000000000000000000000000000000000000600052601260045260246000fd5b6000610b5382610872565b9150610b5e83610872565b925082610b6e57610b6d610b19565b5b828204905092915050565b6000610b8482610872565b9150610b8f83610872565b9250828203905081811115610ba757610ba6610aa8565b5b9291505056fea2646970667358221220e148b07d3002c32c12e717deadd103f73a2337c06b17f982a9d5146727f4b50464736f6c63430008110033a264697066735822122071c4ca4c6a657d2d5bdda528796c38b6008f2e981f5e2dc270c7a6857f0fc28464736f6c63430008110033",
  "devdoc": {
    "kind": "dev",
    "methods": {},
    "version": 1
  },
  "userdoc": {
    "kind": "user",
    "methods": {},
    "version": 1
  },
  "storageLayout": {
    "storage": [
      {
        "astId": 229,
        "contract": "contracts/PhotographFactory.sol:PhotographFactory",
        "label": "tokenId",
        "offset": 0,
        "slot": "0",
        "type": "t_uint256"
      },
      {
        "astId": 232,
        "contract": "contracts/PhotographFactory.sol:PhotographFactory",
        "label": "photograph",
        "offset": 0,
        "slot": "1",
        "type": "t_contract(Photograph)224"
      },
      {
        "astId": 236,
        "contract": "contracts/PhotographFactory.sol:PhotographFactory",
        "label": "simplePhotographArray",
        "offset": 0,
        "slot": "2",
        "type": "t_array(t_contract(Photograph)224)dyn_storage"
      },
      {
        "astId": 239,
        "contract": "contracts/PhotographFactory.sol:PhotographFactory",
        "label": "hashdata",
        "offset": 0,
        "slot": "3",
        "type": "t_array(t_string_storage)dyn_storage"
      },
      {
        "astId": 243,
        "contract": "contracts/PhotographFactory.sol:PhotographFactory",
        "label": "contractToWallet",
        "offset": 0,
        "slot": "4",
        "type": "t_mapping(t_address,t_address)"
      }
    ],
    "types": {
      "t_address": {
        "encoding": "inplace",
        "label": "address",
        "numberOfBytes": "20"
      },
      "t_array(t_contract(Photograph)224)dyn_storage": {
        "base": "t_contract(Photograph)224",
        "encoding": "dynamic_array",
        "label": "contract Photograph[]",
        "numberOfBytes": "32"
      },
      "t_array(t_string_storage)dyn_storage": {
        "base": "t_string_storage",
        "encoding": "dynamic_array",
        "label": "string[]",
        "numberOfBytes": "32"
      },
      "t_contract(Photograph)224": {
        "encoding": "inplace",
        "label": "contract Photograph",
        "numberOfBytes": "20"
      },
      "t_mapping(t_address,t_address)": {
        "encoding": "mapping",
        "key": "t_address",
        "label": "mapping(address => address)",
        "numberOfBytes": "32",
        "value": "t_address"
      },
      "t_string_storage": {
        "encoding": "bytes",
        "label": "string",
        "numberOfBytes": "32"
      },
      "t_uint256": {
        "encoding": "inplace",
        "label": "uint256",
        "numberOfBytes": "32"
      }
    }
  }
}